{
  "contractName": "PriceFeed",
  "abi": [
    {
      "inputs": [
        {
          "internalType": "address",
          "name": "_aggregatorAddress",
          "type": "address"
        }
      ],
      "name": "setAggregatorAddress",
      "outputs": [],
      "stateMutability": "nonpayable",
      "type": "function"
    },
    {
      "inputs": [],
      "name": "get_prices",
      "outputs": [
        {
          "internalType": "int256",
          "name": "",
          "type": "int256"
        }
      ],
      "stateMutability": "view",
      "type": "function",
      "constant": true
    }
  ],
  "bytecode": "0x608060405234801561001057600080fd5b506101fd806100206000396000f3fe608060405234801561001057600080fd5b50600436106100365760003560e01c806347b324481461003b578063d2cd23c01461007f575b600080fd5b61007d6004803603602081101561005157600080fd5b81019080803573ffffffffffffffffffffffffffffffffffffffff16906020019092919050505061009d565b005b6100876100e0565b6040518082815260200191505060405180910390f35b806000806101000a81548173ffffffffffffffffffffffffffffffffffffffff021916908373ffffffffffffffffffffffffffffffffffffffff16021790555050565b60008060008060008060008054906101000a900473ffffffffffffffffffffffffffffffffffffffff1673ffffffffffffffffffffffffffffffffffffffff1663feaf968c6040518163ffffffff1660e01b815260040160a06040518083038186803b15801561014f57600080fd5b505afa158015610163573d6000803e3d6000fd5b505050506040513d60a081101561017957600080fd5b8101908080519060200190929190805190602001909291908051906020019092919080519060200190929190805190602001909291905050509450945094509450945083955050505050509056fea26469706673582212208db431f25bb38da97c177104c4be357eeede758fe9d765fadac1053398fd430a64736f6c634300060c0033",
  "immutableReferences": {},
  "source": "// SPDX-License-Identifier: MIT\r\n// This example code is designed to quickly deploy an example contract using Remix.\r\npragma solidity ^0.6.6;\r\n\r\nimport \"@chainlink/contracts/src/v0.6/interfaces/AggregatorV3Interface.sol\";\r\n\r\ncontract PriceFeed {\r\n    AggregatorV3Interface internal priceFeed;\r\n\r\n    /**\r\n        Set the address of the Aggregator address on whichever network you wish\r\n        For example, the ETH/USD aggregator on Kovan has an address of \"0x9326BFA02ADD2366b30bacB125260Af641031331\"\r\n        Input the address into setAggregatorAddress and call getLatestPrice\r\n     */\r\n    function setAggregatorAddress(address _aggregatorAddress) public {\r\n        priceFeed = AggregatorV3Interface(_aggregatorAddress);\r\n    }\r\n\r\n    /**\r\n     * Returns the latest price\r\n     */\r\n    function get_prices() public view returns (int256) {\r\n        (\r\n            uint80 roundID,\r\n            int256 price,\r\n            uint256 startedAt,\r\n            uint256 timeStamp,\r\n            uint80 answeredInRound\r\n        ) = priceFeed.latestRoundData();\r\n        return price;\r\n    }\r\n}\r\n",
  "sourcePath": "C:\\Users\\Jung\\Desktop\\flashloan\\contracts\\PriceFeed.sol",
  "compiler": {
    "name": "solc",
    "version": "0.6.12+commit.27d51765.Emscripten.clang"
  },
  "schemaVersion": "3.4.2",
  "updatedAt": "2021-08-10T19:04:28.707Z",
  "networkType": "ethereum",
  "devdoc": {
    "kind": "dev",
    "methods": {},
    "version": 1
  },
  "userdoc": {
    "kind": "user",
    "methods": {
      "get_prices()": {
        "notice": "Returns the latest price"
      },
      "setAggregatorAddress(address)": {
        "notice": "Set the address of the Aggregator address on whichever network you wish For example, the ETH/USD aggregator on Kovan has an address of \"0x9326BFA02ADD2366b30bacB125260Af641031331\" Input the address into setAggregatorAddress and call getLatestPrice"
      }
    },
    "version": 1
  }
}